:020000040800F2
:100000000000022085020008D5020008D502000881
:10001000D5020008D5020008D50200080000000043
:10002000000000000000000000000000D5020008F1
:10003000D502000800000000D5020008D502000823
:10004000D5020008D5020008D5020008D502000834
:1000500000000000D5020008D5020008D502000803
:10006000D5020008D5020008D5020008D502000814
:10007000D5020008D5020008D5020008D502000804
:10008000D5020008D5020008D5020008D5020008F4
:10009000D5020008D5020008D5020008D5020008E4
:1000A000D5020008D5020008D5020008D5020008D4
:1000B000D5020008D5020008D5020008D5020008C4
:1000C000D5020008D5020008D5020008D5020008B4
:1000D000D5020008D5020008D5020008D5020008A4
:1000E000D5020008D5020008D5020008D502000894
:1000F000D5020008D5020008D5020008D502000884
:10010000D5020008D5020008D5020008D502000873
:10011000D5020008D5020008D5020008D502000863
:10012000D5020008D5020008D5020008D502000853
:10013000D5020008D5020008D5020008D502000843
:10014000D5020008D5020008D5020008D502000833
:10015000D5020008D5020008D5020008D502000823
:10016000D5020008D5020008D5020008D502000813
:10017000D5020008D5020008D5020008D502000803
:10018000D5020008D50200080000000000000000B1
:10019000000000000000000000000000000000005F
:0801A000D5020008D502000899
:1001A80010B5054C237833B9044B13B10448AFF3A9
:1001B80000800123237010BD000000200000000013
:1001C8002003000808B5034B1BB103490348AFF3EC
:1001D800008008BD00000000040000202003000883
:1001E80080B500AF184B1B6B174A43F00803136325
:1001F800164B1B68154A43F0AA431360134B5B69FF
:10020800124A83F480535361114800F023F80F4BCE
:100218005B690E4A83F4004353610D4800F01AF8F5
:100228000A4B5B69094A83F480435361084800F02C
:1002380011F8064B5B69054A83F40053536104487F
:1002480000F008F800BFD9E700380240000C02406F
:1002580080841E0080B485B000AF78600023FB6006
:1002680002E0FB680133FB60FB687A689A42F8D8C1
:1002780000BF00BF1437BD4680BC70470D48854697
:10028800AFF300800C480D490D4A002302E0D45812
:10029800C4500433C4188C42F9D30A4A0A4C0023C8
:1002A80001E013600432A242FBD300F011F8FFF71B
:1002B80097FFFEE700000220000000200000002059
:1002C80040030008000000201C000020FEE700009A
:1002D80070B50D4D0D4C641BA4100026A64209D123
:1002E8000B4D0C4C00F018F8641BA4100026A64215
:1002F80005D170BD55F8043B98470136EEE755F82F
:10030800043B98470136F2E7380300083803000831
:10031800380300083C030008F8B500BFF8BC08BC67
:100328009E467047F8B500BFF8BC08BC9E467047AB
:04033800CD010008EB
:04033C00A90100080B
:040000050800028568
:00000001FF
